:1000000072C000009EC00000AEC10000D3C100005D
:1000100098C0000096C0000094C0000092C000008C
:1000200090C000008EC000008CC000008AC000009C
:1000300088C0000086C0000084C0000082C00000AC
:1000400080C000007EC000007CC000007AC00000BC
:1000500078C0000076C0000074C0000072C00000CC
:1000600070C000006EC000006CC000006AC00000DC
:1000700068C0000066C0000064C0000062C00000EC
:1000800060C000005EC000005CC000005AC00000FC
:1000900058C0000056C0000054C0000052C000000C
:1000A00050C000004EC000004CC000004AC000001C
:1000B00048C000009BC0000044C0000042C00000D7
:1000C00040C000003EC000003CC000003AC000003C
:1000D00038C0000036C0000034C0000032C000004C
:1000E00030C000002D0211241FBECFEFD1E2DEBFD1
:1000F000CDBF00E00CBF12E0A0E0B2E0E0E6F6E029
:1001000000E00BBF02C007900D92A831B107D9F7EC
:1001100022E0A8E1B2E001C01D92A332B207E1F7EC
:1001200010E0C3E7D0E000E005C021970109802F6F
:10013000FE018CD2C237D10780E00807B1F761D148
:100140008DC25ECFFC011182108281E08283148215
:1001500013820895FC01838194818C30910540F4D1
:10016000880F991FFC01E050FE4F80819181089516
:1001700080E090E00895FC01238134812F5F3F4FA0
:10018000348323830895FC0123813481265031096F
:1001900081E02230310508F480E00895FC012381DC
:1001A000348181E02B3031050CF080E008950F930D
:1001B0001F93CF93DF93EC01CDDF8C01CE01E3DF02
:1001C00028813981021713072CF09A81891721F0B1
:1001D00091E003C091E001C090E0198308838A8315
:1001E000892FDF91CF911F910F9108951F920F9248
:1001F0000FB60F9211248F939F938CEC90E0909305
:100200009B0080939A001092A10081E089BB10921C
:1002100072009F918F910F900FBE0F901F901895B5
:10022000FC01108211828DB188618DB983EA8093BF
:10023000900082E0809391001092990010929800B3
:1002400010929B0010929A000895662369F088EB43
:1002500092E090939900809398008CEC90E09093BA
:100260009B0080939A000895109299001092980034
:1002700010929B0010929A00089581E08093720082
:100280008CE791EE9093A5008093A4001092A000BB
:1002900085E08093A10081EE93E090939B00809392
:1002A0009A000895019781F46F3F7F4F69F48EE1C2
:1002B00092E048DF6FE08DE192E050D18AE192E078
:1002C000D2D088E192E0ACCF08958EE192E053DF86
:1002D0008EE192E03FDFBC018AE192E0EAD08EE15C
:1002E00092E051DF682F8AE192E0F6D080912102FE
:1002F000909122020B9711F462E001C063E08DE15E
:1003000092E0F4D08EE192E049DF682F88E192E03C
:100310009CDF8EE192E04BDF882349F0209121029F
:10032000309122022B3031051CF080E001C080E0CA
:10033000882319F088E192E0A0DF8DB3897F8DBB1F
:100340002FEF82E597E0215080409040E1F700C018
:1003500000008CB3882319F08CB387608CBB8DB3FD
:1003600086608DBB08951F920F920FB60F921124D5
:100370000BB60F922F933F934F935F936F937F939F
:100380008F939F93AF93BF93EF93FF939EDFFF9164
:10039000EF91BF91AF919F918F917F916F915F91FD
:1003A0004F913F912F910F900BBE0F900FBE0F906A
:1003B0001F9018951F920F920FB60F9211240BB633
:1003C0000F922F933F934F935F936F937F938F93EE
:1003D0009F93AF93BF93EF93FF9377DFFF91EF91DD
:1003E000BF91AF919F918F917F916F915F914F914D
:1003F0003F912F910F900BBE0F900FBE0F901F904B
:10040000189581B18F7781B98AB1897F8AB988E2DD
:10041000809369008DB386608DBB079B0AC02FEF68
:1004200082E597E0215080409040E1F700C0000055
:10043000F4CF61E08DE192E059D08EE192E0AEDE42
:10044000682F88E192E001DF8EE192E083DEBC015B
:100450008AE192E02ED07894FFCF6FEF7FEF81E0BA
:1004600090E020CF0895FC011182108281E0828308
:1004700080E284B987B1816087B983E88093800086
:1004800082E08093810020813181C901880F991F0A
:10049000220F331F220F331F220F331F280F391F44
:1004A000309389002093880088B19281892B88B984
:1004B0000895FC0171836083CB01880F991F660F3B
:1004C000771F660F771F660F771F680F791F70936E
:1004D0008900609388000895662321F088B18160C7
:1004E00088B9089588B18E7F88B90895CF93DF9336
:1004F000C62F8EE782D083E080D080E07ED080E07F
:100500007CD08C2F7AD0D0E02396D195C195D1099B
:100510008D2F73D08C2F71D08FEE6FD0DF91CF9154
:100520000895CF93DF93C62F8EE767D086E065D01E
:1005300080E063D080E061D08C2F5FD0D0E0269641
:10054000D195C195D1098D2F58D08C2F56D085EFDC
:1005500054D08FEE52D0DF91CF9108950F931F9317
:10056000CF938C01C62F48E060E875E280E090E010
:100570000AD0CF3108F0CEE16C2FC801D2DFCF9185
:100580001F910F9108950F931F938B019C010C52A3
:10059000114021093109053D104C2140310550F52C
:1005A000453040F1493030F528E12093C1004550F5
:1005B000440F4093C200DC01CB01880F991FAA1F92
:1005C000BB1F880F991FAA1FBB1F9C01AD01220FE3
:1005D000331F441F551F220F331F441F551F60E058
:1005E00074E284EF90E010D0215031093093C500BF
:1005F0002093C4001F910F9108959091C00095FF22
:10060000FCCF8093C6000895A1E21A2EAA1BBB1B43
:10061000FD010DC0AA1FBB1FEE1FFF1FA217B307CE
:10062000E407F50720F0A21BB30BE40BF50B661FE4
:10063000771F881F991F1A9469F7609570958095A8
:1006400090959B01AC01BD01CF010895EE0FFF1FF6
:10065000881F8BBF0790F691E02D1994F894FFCF77
:1006600064006400640032005A003200320032003C
:0806700050005000460000009C
:00000001FF
